:03000000020006F5
:06005F0075080002000319
:0300030002006593
:10006500D2B2E4B5080280077401B508F580507F67
:10007500008F068EF005F07401800225E0D5F0FBB7
:10008500F590C007120146120127E582D0077006D8
:100095000FBF080040DBE50870C87F068F068EF0AD
:1000A50005F07401800225E0D5F0FBF590C007123C
:1000B5000146120127E582D00770A7DFDF80A37F05
:1000C500008F068EF005F07401800225E0D5F0FB67
:1000D500F590C006120146120127E582D006700987
:1000E50074022EFFBF080040D87401B508028003D2
:1000F5000200677F078F068EF005F07401800225E8
:10010500E0D5F0FBF590C006120146120127E58205
:10011500D0066003020067EE24FEFF24FE40D602EF
:10012500006720B21812014620B212050874FE2598
:1001350008500375080030B2FD75820122758200F2
:10014500227E007F007C2C7D01EC24FFFAED34FF3C
:10015500FB8A048B05EA4B70F00EBE00010FC3EE5F
:080165009464EF940040DE22D7
:06003500E478FFF6D8FD9F
:100013007900E94400601B7A00900171780175A0B2
:1000230000E493F2A308B8000205A0D9F4DAF2754C
:02003300A0FF2C
:10003B007800E84400600A790175A000E4F309D860
:10004B00FC7800E84400600C7900900001E4F0A318
:04005B00D8FCD9FAFA
:0D00060075810812016DE5826003020003A0
:04016D007582002275
:00000001FF
