:03000000020914DE
:0C091400787FE4F6D8FD75810D02095BC8
:030A1900010D00CC
:10080000D2B2E50D1209D7081A0008680108900253
:1008100008B20308D30400000802750C00E50CC3FD
:100820009408501BAF0CA8077401088002C333D88A
:10083000FCF5901209A01209FD4004050C80DEE5CC
:100840000D70BF750C06E50CD3940040B5AF0CA835
:10085000077401088002C333D8FCF5901209A01276
:1008600009FD409E150C80DE750C00E50CC3940854
:100870005090AF0CA8077401088002C333D8FCF570
:10088000901209A01209FD5003020802050C80DB3A
:100890007590FF1209A01209FD500302080275901D
:1008A000001209A01209FD40030208020208020218
:1008B0000802750C00E50CC394FF4003020802E532
:1008C0000CF4F5901209A01209FD5003020802056C
:1008D0000C80E2750C00E50C64086014AF0CA807EE
:1008E0007401088002C333D8FCF5901209A080E699
:1008F000750C07E50C64017003020802AF0CA80731
:100900007401088002C333D8FCF5901209A080E37B
:03091000020802D8
:0109130022C1
:1009FD0020B2171209A020B211050DE50DC3940404
:0C0A0D004003750D0030B2FDD322C3225F
:1009A000750800750900C3E5099464E508940050D2
:1009B00025750A00750B00C3E50B942CE50A94011C
:1009C000500A050BE50B7002050A80EB0509E509E5
:0609D0007002050880D052
:0109D60022FE
:10092000020800E493A3F8E493A34003F68001F2E5
:1009300008DFF48029E493A3F85407240CC8C333D8
:10094000C4540F4420C8834004F456800146F6DFA7
:10095000E4800B0102040810204080900A19E47E14
:10096000019360BCA3FF543F30E509541FFEE4939C
:10097000A360010ECF54C025E060A840B8E493A363
:10098000FAE493A3F8E493A3C8C582C8CAC583CA8E
:10099000F0A3C8C582C8CAC583CADFE9DEE780BE46
:010A1C0000D9
:1009D700D083D082F8E4937012740193700DA3A3AF
:1009E70093F8740193F5828883E4737402936860C3
:0609F700EFA3A3A380DFC3
:00000001FF
